{
  "_format": "hh-sol-artifact-1",
  "contractName": "MyContract",
  "sourceName": "contracts/MyContracts.sol",
  "abi": [
    {
      "inputs": [
        {
          "internalType": "string",
          "name": "_name",
          "type": "string"
        }
      ],
      "stateMutability": "nonpayable",
      "type": "constructor"
    },
    {
      "inputs": [
        {
          "internalType": "bytes32",
          "name": "c__0x4d7511fd",
          "type": "bytes32"
        }
      ],
      "name": "c_0x4d7511fd",
      "outputs": [],
      "stateMutability": "pure",
      "type": "function"
    },
    {
      "inputs": [
        {
          "internalType": "string",
          "name": "_name",
          "type": "string"
        }
      ],
      "name": "changeName",
      "outputs": [],
      "stateMutability": "nonpayable",
      "type": "function"
    },
    {
      "inputs": [],
      "name": "getName",
      "outputs": [
        {
          "internalType": "string",
          "name": "",
          "type": "string"
        }
      ],
      "stateMutability": "view",
      "type": "function"
    }
  ],
  "bytecode": "0x60806040523480156200001157600080fd5b5060405162000a4638038062000a46833981810160405281019062000037919062000224565b6200006b7fe5af1c88bdd3047405cff4c6b4f1df014a47cf9d114b864ec29a2a59430ef59960001b620000f360201b60201c565b6200009f7f29afe0465f19abcfc054b5fb3eda813585dc6ad9bc38a1c2387362773ddcd85460001b620000f360201b60201c565b620000d37fc635f6afc560f662009c0310fc23b824bc096e1a32e6d1d4cb49a85cd40b6c5c60001b620000f360201b60201c565b8060009080519060200190620000eb929190620000f6565b5050620003f9565b50565b82805462000104906200030a565b90600052602060002090601f01602090048101928262000128576000855562000174565b82601f106200014357805160ff191683800117855562000174565b8280016001018555821562000174579182015b828111156200017357825182559160200191906001019062000156565b5b50905062000183919062000187565b5090565b5b80821115620001a257600081600090555060010162000188565b5090565b6000620001bd620001b7846200029e565b62000275565b905082815260208101848484011115620001dc57620001db620003d9565b5b620001e9848285620002d4565b509392505050565b600082601f830112620002095762000208620003d4565b5b81516200021b848260208601620001a6565b91505092915050565b6000602082840312156200023d576200023c620003e3565b5b600082015167ffffffffffffffff8111156200025e576200025d620003de565b5b6200026c84828501620001f1565b91505092915050565b60006200028162000294565b90506200028f828262000340565b919050565b6000604051905090565b600067ffffffffffffffff821115620002bc57620002bb620003a5565b5b620002c782620003e8565b9050602081019050919050565b60005b83811015620002f4578082015181840152602081019050620002d7565b8381111562000304576000848401525b50505050565b600060028204905060018216806200032357607f821691505b602082108114156200033a576200033962000376565b5b50919050565b6200034b82620003e8565b810181811067ffffffffffffffff821117156200036d576200036c620003a5565b5b80604052505050565b7f4e487b7100000000000000000000000000000000000000000000000000000000600052602260045260246000fd5b7f4e487b7100000000000000000000000000000000000000000000000000000000600052604160045260246000fd5b600080fd5b600080fd5b600080fd5b600080fd5b6000601f19601f8301169050919050565b61063d80620004096000396000f3fe608060405234801561001057600080fd5b50600436106100415760003560e01c806317d7de7c146100465780635353a2d814610064578063f09045f214610080575b600080fd5b61004e61009c565b60405161005b919061042a565b60405180910390f35b61007e600480360381019061007991906103a8565b6101b2565b005b61009a6004803603810190610095919061037b565b610250565b005b60606100ca7f72492acb8102d521d888afc6d5dfd44aa94e2a9cb8cb8a14ec1d6426d229168d60001b610250565b6100f67fd8aa4fcdeae76ae275a537578c06fc492404a399520cc23fc9f0d5fbb9faf0ca60001b610250565b6101227f856d00e30e8b0504cb563294809acc8350fcd5d397a6ac4f500cab82c17ce68b60001b610250565b6000805461012f9061050a565b80601f016020809104026020016040519081016040528092919081815260200182805461015b9061050a565b80156101a85780601f1061017d576101008083540402835291602001916101a8565b820191906000526020600020905b81548152906001019060200180831161018b57829003601f168201915b5050505050905090565b6101de7f7b9dbe47421342c7c4b18df554043417d568e5a38b601fba1cdb3a783b437f6360001b610250565b61020a7f5214d1039b0d1563a0b06deefd114173efd886df5b7d1f5c21ed0b310920d08160001b610250565b6102367f6524c66d6815122be6ba876fea5cf53fc87f62239a3745fe3b5b54db60b99b9260001b610250565b806000908051906020019061024c929190610253565b5050565b50565b82805461025f9061050a565b90600052602060002090601f01602090048101928261028157600085556102c8565b82601f1061029a57805160ff19168380011785556102c8565b828001600101855582156102c8579182015b828111156102c75782518255916020019190600101906102ac565b5b5090506102d591906102d9565b5090565b5b808211156102f25760008160009055506001016102da565b5090565b600061030961030484610471565b61044c565b905082815260208101848484011115610325576103246105d0565b5b6103308482856104c8565b509392505050565b600081359050610347816105f0565b92915050565b600082601f830112610362576103616105cb565b5b81356103728482602086016102f6565b91505092915050565b600060208284031215610391576103906105da565b5b600061039f84828501610338565b91505092915050565b6000602082840312156103be576103bd6105da565b5b600082013567ffffffffffffffff8111156103dc576103db6105d5565b5b6103e88482850161034d565b91505092915050565b60006103fc826104a2565b61040681856104ad565b93506104168185602086016104d7565b61041f816105df565b840191505092915050565b6000602082019050818103600083015261044481846103f1565b905092915050565b6000610456610467565b9050610462828261053c565b919050565b6000604051905090565b600067ffffffffffffffff82111561048c5761048b61059c565b5b610495826105df565b9050602081019050919050565b600081519050919050565b600082825260208201905092915050565b6000819050919050565b82818337600083830152505050565b60005b838110156104f55780820151818401526020810190506104da565b83811115610504576000848401525b50505050565b6000600282049050600182168061052257607f821691505b602082108114156105365761053561056d565b5b50919050565b610545826105df565b810181811067ffffffffffffffff821117156105645761056361059c565b5b80604052505050565b7f4e487b7100000000000000000000000000000000000000000000000000000000600052602260045260246000fd5b7f4e487b7100000000000000000000000000000000000000000000000000000000600052604160045260246000fd5b600080fd5b600080fd5b600080fd5b600080fd5b6000601f19601f8301169050919050565b6105f9816104be565b811461060457600080fd5b5056fea2646970667358221220384f8c76d7879cff874458f8e63353c2280d650b42a86fa1c58de6950d8e8a7564736f6c63430008050033",
  "linkReferences": {},
  "deployedLinkReferences": {}
}